:02000000172ABD
:06000600000000000800EC
:0E000C00213083120313FD00FD0B0A280800AB
:10001A000F3083120313FC004730FD00FD0B132839
:0A002A00FC0B132800000000080082
:1000340083160313A61B21288312861123288312F7
:1000440086158316261B2928831206112B28831252
:1000540006158316A61A31288312861033288312B4
:1000640086148316261A3928831206103B28831215
:1000740006146A183F28061640280612861603201E
:1000840086128316A6194928831286114B288312D7
:1000940086158316261951288312061153288312B4
:1000A40006158316A6185928831286105B28831216
:1000B4008614831626186128831206106328831277
:1000C40006146A186728061668280612861603207E
:0E00D40086126A1C6F280D2070280620080076
:1000E200710DF80DF90D7408F8027508031C750FEF
:1000F200F902F00DF10D0F30FC00710DF80DF90D44
:100102007408701C8A28F8027508031C750FF9021E
:100112008F28F80775080318750FF907F00DF10D10
:10012200FC0B7E2870189B287408F80775080318C2
:08013200750FF9070000080039
:10013A00831203136A1083162508A6001A206A146C
:02014A000800AB
:0E014C008312031365088A006408820008000D
:10015A00831203137408003A031DBC287508003A79
:10016A00031DBC28FF30F0007F30F10015298312EF
:10017A000313FD01F901F801710870040319003431
:10018A0071087506FA00FA1BFD09FB01F51FD22852
:10019A00F409F509F40A0319F50AF11FD928F00937
:1001AA00F109F00A0319F10A71087504FA00FA1B39
:1001BA00EE2871207B180129FD1F0034F009F1098E
:1001CA00F00A0319F10AF809F909F80A0319F90AF0
:1001DA000034F51FFD28F11BF9287108F900700891
:1001EA00F800F101F001E128F101F001F00A003410
:1001FA00F109F009FB0ADE28F80A0319F90A74085A
:10020A007802031DE12875087902031DE128F90126
:10021A00F801F00A0319F10AF11FE1280000FF347E
:02022A000800CA
:10022C002829803083160313A2003B29C030A2007A
:10023C003B299430A2003B29D430A2003B298030CA
:10024C00A2003B29831603132208013A031917292C
:10025C002208023A03191C292208033A03191F2900
:10026C002208043A0319222925292303F000220825
:10027C00F0077008A20083126A1470088316A60097
:10028C001A206A1083162408A6001A206A14080083
:10029C0083120313FB01FA01F9018030F800F10C11
:1002AC00F00C031C62297408F90775080318750F04
:1002BC00FA070318FB0A0310F01F6A297408FA07DF
:1002CC0075080318750FFB07FB0CFA0CF90CF80CEE
:1002DC00031C55297B08F3007A08F2007908F10019
:0602EC007808F000080094
:1002F200A6208A110A128000840AE40A0319E50A78
:08030200F003031D7929080036
:10030A00831603138612061206108610061186112A
:10031A0083128612061286110611861006100D2007
:10032A000D200D20861406148616032086120D2031
:10033A008616032086120D208616032086120D20AB
:10034A0006108616032086120D20861603208612B2
:10035A00861086158616032086120D20861106142D
:10036A0086160320861206108616032086120D2092
:10037A0086160320861206148616032086120D207E
:10038A00061086160320861286150615861406148C
:0C039A008616032086120D206A1408004D
:1003A600E529803083160313A200F829C030A20085
:1003B600F8299430A200F829D430A200F829803018
:1003C600A200F829831603132208013A0319D42937
:1003D6002208023A0319D9292208033A0319DC290B
:1003E6002208043A0319DF29E2292303F000220830
:1003F600F0077008A2007008A6001A206A10EF0124
:100406006F0883162407840000080319142A831230
:100416006F088316240784000008A5009D20EF0AB4
:08042600032A83126A14080086
:10042E005426FF3083160313850006309F00852166
:10043E0001308316A6001A200C308316A6001A204F
:10044E0002308316A2000530A3004230A400D3214F
:10045E0002308316A2000C30A3004230A400D32138
:10046E0001308316A2000330A3004030A400D32134
:10047E0001308316A2000730A3004430A400D3211C
:10048E0001308316A2000F30A3004830A400D32100
:10049E0080306906F00080307002031D582A0D303E
:1004AE0068020318D02B0A306607F100670803189C
:1004BE00013EF20069087206031D672A710868067C
:1004CE00031D6D2A6808E6006908E700003069061A
:1004DE00031D732A00306806031D7B2AE601E7011F
:1004EE000130E8000030E90000306906031D812A62
:1004FE0001306806031D852AE601E70166086802D9
:10050E00DC006708031C013E6902DD000A30F400BE
:10051E000030F5006808F0006908F100AD207008A1
:10052E00DA007108DB0002308316A2000330A3004C
:10053E0083125C08F0005D08F100F00DF10D7010F3
:10054E007008203E840000088316A4001621023095
:10055E008316A2000230A30083125A08F0005B0833
:10056E00F100F00DF10D70107008343E840000089B
:10057E008316A400162180306306F00080307002CE
:10058E00031DCB2A3C3062020318CF2B5E08F0000D
:10059E005F08F1000A30F4000030F5004E217008BB
:1005AE006202E0007108031C013E6302E10080302C
:1005BE006306F00080307002031DE72A00306202ED
:1005CE000318ED2A3B30E2000030E3008030F000EB
:1005DE00803063067002031DF62A62083B3C031846
:1005EE00FA2AE201E3010A30F4000030F500620855
:1005FE00F0006308F100AD207008DE007108DF0026
:10060E0002308316A2000930A30083126008F000A6
:10061E006108F100F00DF10D70107008203E84009D
:10062E0000088316A400162102308316A20008309B
:10063E00A30083125E08F0005F08F100F00DF10DCB
:10064E0070107008343E840000088316A400162132
:10065E00ED01EE0180306E06F00080307002031D59
:10066E003A2B3C306D020318CB2B0A305607F100A3
:10067E0057080318013EF2006E087206031D492B3F
:10068E0071086D06031D4F2B6D08D6006E08D7003E
:10069E0000306E06031D552B00306D06031D5B2BBF
:1006AE006D08D6006E08D70056086D02EB0057088D
:1006BE00031C013E6E02EC000A30F4000030F5001F
:1006CE006D08F0006E08F100AD207008D8007108BA
:1006DE00D90002308316A2000E30A3007008F2007B
:1006EE007108F300F20DF30D72107208343E84009F
:1006FE000008A400162102308316A2000F30A300BA
:10070E0083126B08F0006C08F100F00DF10D701003
:10071E007008203E840000088316A400162183165C
:10072E00A001A10180302106F00080307002031D6F
:10073E00A22B0A3020020318C62B0230FB00043015
:10074E00FC00BA30FD00FD0BAA2BFC0BAA2BFB0BF9
:10075E00AA2B00008312051CC12B0530FB000F30A5
:10076E00FC00F130FD00FD0BBA2BFC0BBA2BFB0B82
:10077E00BA2BD42B8316A00A0319A10A992B831224
:10078E00ED0A0319EE0A312BE20A0319E30AC22A13
:10079E004F2AE80A0319E90A4F2A051CDD2B1E2AE7
:1007AE00FD0BD72BFC0BD72BFB0BD72B851CE62B6E
:1007BE00502CFD0BE02BFC0BE02BFB0BE02B0A303F
:1007CE004E07F1004F080318013EF200630872064F
:1007DE00031DF32B71086206031DF92B6208CE0070
:1007EE006308CF0000306306031DFF2B0030620646
:1007FE00031D052C6208CE006308CF004E0862026E
:10080E00E0004F08031C013E6302E1000A30F400D1
:10081E000030F5006208F0006308F100AD207008AA
:10082E00DE007108DF0002308316A2000930A3003B
:10083E0083126008F0006108F100F00DF10D7010E8
:10084E007008203E840000088316A4001621023092
:10085E008316A2000830A30083125E08F0005F0822
:10086E00F100F00DF10D70107008343E8400000898
:10087E008316A40016210230FB000430FC00BA30AF
:10088E00FD00FD0B482CFC0B482CFB0B482C0000EC
:10089E00D42B00306906031D562C0D306806031D3F
:1008AE005C2C0130E8000030E9008030F000803030
:1008BE0069067002031D652C6808003C031C6B2C36
:1008CE000C30E8000030E9000A306607F1006708D6
:1008DE000318013EF20069087206031D782C710898
:1008EE006806031D7E2C6808E6006908E7000030E4
:1008FE006906031D842C01306806031D882CE60151
:10090E00E70166086802DC006708031C013E690205
:10091E00DD000A30F4000030F5006808F0006908C8
:10092E00F100AD207008DA007108DB00023083168A
:10093E00A2000330A30083125C08F0005D08F100F2
:10094E00F00DF10D70107008203E84000008831623
:10095E00A400162102308316A2000230A3008312D7
:10096E005A08F0005B08F100F00DF10D70107008E0
:10097E00343E840000088316A40016218316A001BD
:10098E00A10180302106F00080307002031DD12CB1
:10099E000A3020020318202D8312851DE82C013009
:1009AE00E802031CE9030430FB000C30FC0033307A
:1009BE00FD00FD0BE02CFC0BE02CFB0BE02C0000F3
:1009CE000000051CF32C1E2AFD0BEB2CFC0BEB2C54
:1009DE00FB0BEB2C00000000051D062DE80A031989
:1009EE00E90A0430FB000C30FC003330FD00FD0B37
:1009FE00FE2CFC0BFE2CFB0BFE2C00000000851CBD
:100A0E00112D3D2DFD0B092DFC0B092DFB0B092D79
:100A1E00000000003430FC00F130FD00FD0B152D00
:100A2E00FC0B152D000000008316A00A0319A10A65
:100A3E00C82C0230A2000330A3004C30A400D321F6
:100A4E0002308316A2000230A3005030A400D3213E
:100A5E000230FB000430FC00BA30FD00FD0B352DDA
:100A6E00FC0B352DFB0B352D0000502C8030630612
:100A7E00F00080307002031D462D00306202031814
:100A8E004C2D3B30E2000030E3008030F00080302F
:100A9E0063067002031D552D62083B3C0318592D49
:100AAE00E201E3015E08F0005F08F1000A30F40095
:100ABE000030F5004E2170086202E0007108031C40
:100ACE00013E6302E1000A30F4000030F5006208D6
:100ADE00F0006308F100AD207008DE007108DF0041
:100AEE0002308316A2000930A30083126008F000C2
:100AFE006108F100F00DF10D70107008203E8400B9
:100B0E0000088316A400162102308316A2000830B6
:100B1E00A30083125E08F0005F08F100F00DF10DE6
:100B2E0070107008343E840000088316A40016214D
:100B3E008316A001A10180302106F00080307002E2
:100B4E00031DAB2D0A3020020318F62D8312851DCE
:100B5E00C22D0130E202031CE3030330FB008A3096
:100B6E00FC005530FD00FD0BBA2DFC0BBA2DFB0B16
:100B7E00BA2D00000000051CCB2D1E2AFD0BC52D25
:100B8E00FC0BC52DFB0BC52D851CD42D502CFD0B40
:100B9E00CE2DFC0BCE2DFB0BCE2D051DE72DE20A27
:100BAE000319E30A0330FB008A30FC005530FD00C8
:100BBE00FD0BDF2DFC0BDF2DFB0BDF2D00000000EE
:100BCE003430FC00F130FD00FD0BEB2DFC0BEB2D5A
:100BDE00000000008316A00A0319A10AA22D0230FC
:100BEE00A2000930A3005430A400D3210230831692
:100BFE00A2000830A3005230A400D3210230FB0023
:100C0E000430FC00BA30FD00FD0B0B2EFC0B0B2E3E
:0A0C1E00FB0B0B2E00003D2D132EE2
:100CA800203084003A3083120313F0001930E40036
:080CB8000630E5007921080077
:100C3200303400343134003432340034333400344C
:100C4200343400343534003436340034373400342C
:080C5200383400343934003459
:100C5A003034003431340034323400343334003424
:080C6A00343400343534003449
:040C720048340034CE
:040C76003A340034D8
:080C7A004D3469346E3400347E
:080C82005334453443340034BF
:040C8A0020340034DE
:040C8E0000340034FA
:040C920020340034D6
:040C960020340034D2
:040C9A0020340034CE
:040C9E0000340034EA
:040CA20000340034E6
:02400E004A2F37
:00000001FF
